:020000022000DC
:1060000000000120B5620200DD620200DF620200D2
:10601000E1620200E3620200E562020000000000AB
:10602000000000000000000000000000E762020025
:10603000E962020000000000EB620200ED62020073
:1060400005990200EF620200FDA7020069990200B3
:10605000F1620200EF620200B5A20200EF620200EC
:10606000EF620200EF620200EF620200EF620200E4
:10607000EF620200EF620200EF620200EF620200D4
:10608000EF620200F1740200EF620200EF620200B0
:1060900091750200EF6202004DE20200EF62020021
:1060A000EF620200EF620200EF620200EF620200A4
:1060B000EF620200EF62020000000000000000003A
:1060C000EF620200EF620200EF620200EF62020084
:1060D000EF620200EF620200EF62020000000000C7
:1060E00000000000000000000000000000000000B0
:1060F00000000000000000000000000000000000A0
:10610000000000000000000000000000000000008F
:10611000000000000000000000000000000000007F
:10612000000000000000000000000000000000006F
:10613000000000000000000000000000000000005F
:10614000000000000000000000000000000000004F
:10615000000000000000000000000000000000003F
:10616000000000000000000000000000000000002F
:10617000000000000000000000000000000000001F
:10618000000000000000000000000000000000000F
:1061900000000000000000000000000000000000FF
:1061A00000000000000000000000000000000000EF
:1061B00000000000000000000000000000000000DF
:1061C00000000000000000000000000000000000CF
:1061D00000000000000000000000000000000000BF
:1061E00000000000000000000000000000000000AF
:1061F000000000000000000000000000000000009F
:1062000010B5054C237833B9044B13B10448AFF3F0
:1062100000800123237010BD202D0020000000000D
:10622000980F030008B5034B1BB103490348AFF3B4
:10623000008008BD00000000242D0020980F0300FE
:10624000154B002B08BF134B9D46A3F5803A002148
:106250008B460F461348144A121A08F08AFC0F4B5B
:10626000002B00D098470E4B002B00D09847002001
:10627000002104000D000D48002802D00C48AFF3A7
:10628000008008F027FC2000290005F0EFFE08F050
:106290000DFC00BF0000080000000120000000000D
:1062A00000000000202D0020803D002000000000A4
:1062B000000000000649074A074B9B1A03DD043B18
:1062C000C858D050FBDC02F0BBFEFFF7B9FF00005E
:1062D000CC100300982A0020202D0020FEE7FEE7C6
:1062E000FEE7FEE7FEE7FEE7FEE7FEE7FEE7FEE786
:1062F0004FF04022D2F81831E3B100210F4BC2F821
:106300001811D2F81811DA7F82B0FF2A0191019991
:1063100008D0987F012101FA02F24FF0A04150B15C
:10632000C1F80C2500225A771A72D3E900210448DB
:1063300002B010477047C1F80825F3E73C2D002054
:10634000442D0020704700BF00B583B0044B00937C
:10635000044A402300F036F803B05DF804FB00BFA8
:1063600069630200642D002002B32DE9F843114B4C
:10637000114E8846144643F00109032700252246A2
:1063800008EB0501002006F061F803461D444FF4B8
:106390007A40E41A23B9337833B1C847013F06D0B5
:1063A00001233370002CEAD1BDE8F88370473770C1
:1063B000BDE8F883B0FD0200602D0020704700BFEB
:1063C00006F0F8B8F0B595B0002415460F4608461B
:1063D0001E4602F00FFD384623460895082205A9FF
:1063E0001A9D09960D950A948DF82C400C9402F094
:1063F00055FD9DF814308DF81140DDE9061003F0CD
:106400000302012ACDE9020127D0022A04D038462E
:1064100002F0F4FC15B0F0BDBDF81650C3F3C20392
:106420008DF81030AD090826082D2C4628BF082409
:10643000334622460EA9384602F030FD2D1B214678
:1064400008AB02AA0EA8264400F0CEFD002DEBD129
:10645000384602F0D3FC15B0F0BDBDF81460059DC0
:10646000C6F38316C3F3C204B2000EA9384608234C
:106470008DF81040C5F3952502F010FD08AB3246AB
:1064800028460EA9009302AB00F008FD384602F042
:10649000B5FC15B0F0BD00BF10B5054CFFF790FF7F
:1064A0002046042100F0B8FC0123637210BD00BF38
:1064B000982A0020F0B5314D85B005F5836001F0D4
:1064C00067FD05F2144001F063FDD5E9012702EAFA
:1064D0000704E31C05EB830319788E0701F0040021
:1064E0000ED0C8B101F00301012935D0022902F113
:1064F0000200EED15A8800EB921202EA0704E8E7A4
:10650000561C0028EED159881A8806EB911606EB26
:10651000921202EA0704DCE705EB8404531CE168ED
:1065200001913B4005EB830301F003010129DE6883
:1065300002F102041AD0022916D1BDF806309B09D7
:106540000333360C04EB93040D4801F02DFD00B12C
:106550006C60304605B0F0BD1B880232C3F3831374
:106560001A4402EA0704B4E70646EDE7BDF8043032
:10657000C3F38313360C1C44E6E700BF742E0020DF
:106580008832002008B50E4B0E480022FF21C3F8C8
:1065900018249960C3E90022C3F8142483F8202446
:1065A00002F0E4FB58B9084A084BD21AD20806D0C8
:1065B0000749034621F8233001339A42FAD108BD36
:1065C000742E00208410030084100300F40F0300D5
:1065D000D42C002021B9134A02EBC0000068704798
:1065E00030B411490F4C091BC90816D00F4B5A88FB
:1065F000824218BF002205D111E0DD88854203F1F7
:10660000040305D001329142F7D1002030BC70471D
:1066100004EBC200006830BC70470846F6E720462D
:10662000F8E700BFF40F030084100300D42C00200F
:10663000094B013903EBC00003290BD8DFE801F057
:1066400002080604022070474079704700797047BD
:106650000420704700207047F40F03002DE9F04339
:1066600083B002AB002203F8012DDFF8DC9007466F
:1066700018468846D9F8084001F0B6FBD9E901323E
:10668000D9F80060134401339B1B012B58D809F241
:106690001C450121284601F063FCFFF70BFF014672
:1066A000284601F05DFCD9E90132D9F80010134405
:1066B00001335B1A012BECD90A4003320523023166
:1066C0009DF8070049F82230C9F8001001F0B2FB2C
:1066D00000211C4801F022FC80F31000731C2340B1
:1066E00009EB830300043440033440EA1740D860C8
:1066F00019F8243067F3C50309F8243039F8243039
:106700006FF3891329F8243059F8242068F39F2265
:106710001346012161F301036FF3820349F824203A
:1067200009F8243099F820341BB906E000F00EF87F
:1067300018B1D9E900329A42F8D103B0BDE8F0832C
:106740003146B9E790320020742E00202DE9F04741
:106750008F4D002384B0C5F81834BFF34F8FD5E9AF
:1067600001462B680CE037B301F0030101294FD03B
:10677000022903D15288023404EB9214A34215D9A2
:1067800004EA0600C21C05EB8202117811F0030F27
:1067900001F00407E7D1002FE6D1518812880134B7
:1067A00004EB911404EB9214A342E9D800206B602F
:1067B00004B0BDE8F08705EB8000631CC26801925D
:1067C000334005EB830302F00302DB680293022AE5
:1067D00004F1020800F08380012A1FD0D5F810448C
:1067E00034B1236820469B6898476468002CF8D130
:1067F000684B69491888000440F00200FFF72EFF3B
:10680000D5E90030C01A18BF012004B0BDE8F087F8
:1068100012880234C2F383121444AFE7BDF8042097
:106820005E48C2F38313062B28BF062363F3891245
:1068300002339900ADF8042002F09AFA814600284C
:10684000CCD002F0D7FA3B46082201A9484602F014
:10685000F7FABDF8043013F4707F00F097806FF002
:10686000010AAAEB040A082406EA080103312346B8
:10687000042205EB8101484602F0E2FABDF804303B
:1068800008F101070AEB0702C3F383139342B846EA
:1068900004F10404E8D8D5F81834002B6BD1D5F8EE
:1068A000104454B1637A20464946002B5FD02368D8
:1068B0001B6898476468002CF4D1484602F09EFAA1
:1068C00004A8002300F80D3D01F08EFAD5F8183425
:1068D00003B96F609DF8030001F0ACFA90E7BDF8D2
:1068E00006302E489C09502CA24628BF4FF0500A73
:1068F0006AF38F130AF10801ADF8063002F038FA96
:10690000814600283FF46AAF02F074FA3B4626EA5B
:1069100008070137082201A94846BF0002F090FA93
:10692000BA4519D95FFA8AF34FB306EA0801DB1BAF
:10693000033105EB8101DEB23A460823484602F0F6
:106940007FFA324607F108031549484602F078FA03
:10695000033408EB94079EE706EA0801033105EBD0
:10696000810152460823484602F06AFAF0E764685B
:10697000002C97D1A1E7484602F040FA40E7524682
:1069800008230749484602F05BFAE1E7474682E7F9
:10699000742E0020F02C0020C4FD0200841003009F
:1069A000802E00202DE9F04782B002AB002403F8CE
:1069B000014DDFF8ECA00746184691468846DAF804
:1069C000084001F011FADAE90132DAF80060134404
:1069D00001339B1B022B5ED80AF21C45012128467D
:1069E00001F0BEFAFFF766FD0146284601F0B8FA4D
:1069F000DAE90132DAF80010134401335B1A022B92
:106A0000ECD90A400332033145239DF807004AF8C8
:106A10002230CAF8001001F00DFAB31C23400AEB33
:106A2000830300211D48C3F80C9001F077FA80F32E
:106A30001000731C23400AEB83030004344003342A
:106A400040EA1740D8601AF8243067F3C5030AF803
:106A500024303AF82430012161F389132AF82430D4
:106A60005AF8242068F39F22134661F301036FF361
:106A700082034AF824200AF824309AF820341BB9FB
:106A800006E0FFF763FE18B1DAE900329A42F8D166
:106A900002B0BDE8F0873146B3E700BF9032002076
:106AA000742E00202DE9F04F83B002AD002405F8CC
:106AB000014D3B4C8046284693469A468946A56838
:106AC00001F092F9D4E90132276813440133DB1B4A
:106AD000032B63D804F21C460121304601F040FA32
:106AE000FFF7E8FC0146304601F03AFAD4E90132FA
:106AF0002168134401335B1A032BEDD90A4003329A
:106B0000852344F8223004319DF80700216001F00C
:106B100091F9BA1CFB1C2A402B4004EB820204EBC7
:106B2000830300211F48C2F80CB0C3F80CA001F089
:106B3000F5F980F310007B1C2B4004EB8303000469
:106B40003D40033540EA1840D86014F8253068F31A
:106B5000C50304F8253034F82530022262F3891386
:106B600024F8253054F8252069F39F22134601218B
:106B700061F301036FF3820344F8252004F8253004
:106B800094F820341BB906E0FFF7E0FD18B1D4E912
:106B900000329A42F8D103B0BDE8F08F3946ADE734
:106BA000742E0020903200202DE9F04F83B002AE09
:106BB000002406F8014D3E4C8046304693469A46E6
:106BC000A568894601F010F9D4E901322768134419
:106BD0000133DB1B042B69D804F21C46012130462B
:106BE00001F0BEF9FFF766FC0146304601F0B8F946
:106BF000D4E901322168134401335B1A042BEDD927
:106C00000A400332C52344F8223005319DF80700BD
:106C1000216001F00FF9B81CFA1C28402A403B1DE6
:106C20002B4004EB800004EB820204EB8303C0F8EA
:106C30000CB00021C2F80CA01E480C9ADA6001F0DA
:106C40006DF980F310007B1C2B4004EB83030004E0
:106C50003D40033540EA1840D86014F8253068F309
:106C6000C50304F8253034F82530032262F3891374
:106C700024F8253054F8252069F39F22134601217A
:106C800061F301036FF3820344F8252004F82530F3
:106C900094F820341BB906E0FFF758FD18B1D4E989
:106CA00000329A42F8D103B0BDE8F08F3946A7E729
:106CB000742E0020903200202DE9F04F85B004ACF6
:106CC000002304F8013DDFF834B1019182462046EB
:106CD00002F103089146DBF8084001F085F8DBE992
:106CE0000121DBF800700A444FEA98080132D21BF8
:106CF00008F1020696427AD90BF21C45012128467A
:106D000001F02EF9FFF7D6FB0146284601F028F9DD
:106D1000DBE90121DBF800000A440132121A964235
:106D2000ECD8014003310622064468F39F529DF8D7
:106D30000F004BF82120CBF8006001F07BF8DBF866
:106D40000850B81C204001352D1AAD000330A9456C
:106D50000BEB80003DD801994A4607F0FFFE002169
:106D6000244801F0DBF880F310007A1C22404FEA3F
:106D70001A410BEB82023C40033441EA0040D060F0
:106D80001BF824206AF3C5020BF824203BF82420CA
:106D90006FF38F122BF824200BEB84020220518812
:106DA00069F38F1151801BF8242060F301026FF307
:106DB00082020BF824209BF820241AB906E0FFF782
:106DC000C5FC18B1DBE900219142F8D105B0BDE85E
:106DD000F08F019E2A46314607F0C0FE33462B4411
:106DE0001946A9EB0502044807F0B8FEB7E7384694
:106DF00097E700BF90320020802E0020742E0020E4
:106E0000044BD3E900239A4201D0FFF79FBC002036
:106E1000704700BF742E002030B4154DD5F81044D3
:106E2000002154B1237A8B4213D0234602E01A7A10
:106E30008A420ED05B68002BF9D10172D5F810346C
:106E40007BB15B684360D5F81034586030BC0846AD
:106E5000704701310A29E4D14FF0FF31084630BCB8
:106E60007047C5F81004436030BC0846704700BF47
:106E7000742E002038B5084BD3F81044012583F850
:106E800020543CB12368657220465B68984764686B
:106E9000002CF7D138BD00BF742E00202DE9F0473B
:106EA00084B01D460C9C002394F80C802373EB885F
:106EB00081460E461746002B40D1297A05290ED06F
:106EC0006B7AA88873BB404B53F821A00021FFF7D1
:106ED00081FB524603463D49204601F0DDF8062F6E
:106EE00009D8DFE807F0046A4249525D3300494699
:106EF000204601F0D1F82B7A052B05D06B7A5BB9CF
:106F00003349204601F0C8F8204601F0B9F884F86A
:106F10000C8004B0BDE8F0872E4A2F49204601F0CE
:106F2000BBF8EDE7FFF784FB2C4B2B4953F82020EF
:106F3000204601F0B1F8297AA888C4E7254A0092D2
:106F40002749284A204601F0A7F8B6E7D6E90410F9
:106F5000D6E900230390D6E902070291CDE90007A4
:106F60004946204601F098F8C5E74946D6E900238E
:106F7000204601F091F8BEE7B168D6E9002320462B
:106F80000091494601F088F8B5E7D6E90201D6E953
:106F90000023019100904946204601F07DF8AAE7C0
:106FA000D6E90371B068D6E900230291CDE9000764
:106FB0004946204601F070F89DE732684946204670
:106FC00001F06AF897E700BF64FE020054FE020079
:106FD00060FE020048FE020050FE0200F0FD0200CA
:106FE00030FE020028FE0200082900D970472DE972
:106FF000F04F1D46904600232A7B2B7385B0B8F8CE
:107000000630039207460E46002B78D198F80810F8
:10701000052911D098F80930B8F80400002B60D188
:107020003B4B53F821400021FFF7D4FA2246034698
:107030003849284601F030F8DFF8F8B0DFF8F8906A
:10704000002405E03A5D013401F026F8082C09D04F
:10705000A64249462846F5D85946013401F01CF8A5
:10706000082CF5D12C49DFF8D490DFF8D4B02846AD
:1070700001F012F8002411E017F804A007F04EFD0B
:1070800050445946437813F0970F14BF52462E22AE
:107090002846013401F000F8082C08D0A6424946E1
:1070A0002846E9D8013400F0F7FF082CF6D198F80B
:1070B0000830052B02D098F8093063B917492846E3
:1070C00000F0EAFF284600F0DBFF9DF80C302B7340
:1070D00005B0BDE8F08F124A1249284600F0DCFFE7
:1070E000ECE7FFF7A5FA104B0E4953F8202028468D
:1070F00000F0D2FF98F80810B8F8040090E7084AAA
:1071000000920A490A4A284600F0C6FF7EE700BFFF
:1071100064FE020054FE020020FE020060FE020037
:1071200048FE020050FE0200F0FD020030FE0200A8
:1071300028FE02001CFE020014FE02005CFE02009B
:1071400024FE0200434B1978002900F081802DE9CC
:10715000F04F002487B001258E4603E00134E4B2ED
:10716000744560D23C4B27B21E6816F837C0ACF1AC
:10717000200205FA02F9394ACCF12003D2E90001D4
:1071800025FA03F349EA030905FA0CF800EA0802B4
:1071900001EA0903134306EBC70BDFD021EA090319
:1071A0002E4920EA08026046C1E9002303F078F87E
:1071B00016F837C0ACF1200205FA02F201920199EB
:1071C000CCF12003C6B225FA03F3ACF12002194337
:1071D00006FA02F30393224B0191D3E90023CDE990
:1071E000042305FA0CF30093CCF12001039B26FA4B
:1071F00001F10B43039306FA0CF30293DDE90467F4
:10720000DDE9002316401F4032463B46DDE90267B8
:10721000BB4208BFB24209D00E4B013493F800E0E4
:10722000E4B274459ED307B0BDE8F08F9BF801101F
:10723000DBF80430A1F10101B1FA81F14909091A21
:10724000B1FA81F14909002BE6D060469847E3E79F
:10725000704700BF98320020D0320020C832002092
:10726000C03200202DE9F84F0646244800F016FCF5
:10727000D8B9234F0123A6F1200103FA01FBC6F17F
:107280002002D7E9000123FA02F24BEA020B03FACB
:1072900006FA00EA0A0201EA0B03134307D020EAC8
:1072A0000A0421EA0B05C7E90045BDE8F88F30461E
:1072B00002F0F6FF134ED6E90089C8B148EA0A0386
:1072C00049EA0B049846A146D7E900234BEA030597
:1072D0000D4B0A4819684AEA02044B464246C6E981
:1072E0000023C7E900450022BDE8F84F00F080BB4D
:1072F00028EA0A0829EA0B09E6E700BFA0320020C5
:10730000C8320020C03200209C320020042A36D926
:107310002DE9F04182B00E460546144602F076FE95
:10732000002836D01D491E4A1E4B0D601E481F49BD
:107330001C60167000230022741EC0E90023C1E9FE
:107340000023E4B2EEB105EBC404194F083D4FF041
:107350000008032601E0AC4213D0A37820788DF812
:1073600006803A4601A98DF804608DF8053002F0D8
:1073700057FE083C0028EED002B0BDE8F08107209F
:1073800070470C4A0C48002100F020FB02B0BDE819
:10739000F08102F0F5FD0028C4D0EDE7D0320020E6
:1073A000983200209C320020C0320020C8320020D9
:1073B0006572020045710200D0FE020070B5084DF2
:1073C0002B785BB1074E00243368012113F8340099
:1073D00002F004FF2B780134A342F5D8002070BDE1
:1073E00098320020D032002000B585B000230390F1
:1073F000194601AA44F20100CDE9013300F004F876
:1074000005B05DF804FB00BF10B572B6FFF732FDA2
:10741000FFF7F6FC0028FBD1104C1149208800042E
:1074200040F00100FFF71AF90E4B1B68DB0700D58F
:1074300000BE20880C49000440F00200FFF70EF95E
:10744000BFF34F8F09490A4BCA6802F4E062134345
:10745000CB60BFF34F8F00BFFDE700BFF02C0020D3
:10746000D4FE0200F0ED00E0E0FE020000ED00E0DE
:107470000400FA0559B142B1531E1A4005D1826089
:1074800001608380C26010467047092070470E205B
:10749000704700BF10B403468468C0689A88001B18
:1074A00082420AD3D8681C6802400020A154DA68DE
:1074B0000132DA605DF8044B704704205DF8044B3C
:1074C000704700BF03468068DA6890420DD010B460
:1074D00098689A881C6802400020A25C0A709A682A
:1074E00001329A605DF8044B70470520704700BF79
:1074F000F8B5204A204B0024C2F84041C2F844416C
:10750000C2F84841C2F84C41C2F80041C2F80441F7
:107510001B6833B31949D2F804550A68AD1A1A68C2
:1075200025F07F45AA4227460DD8197CDE69AD1AA1
:10753000144419B11F74D3E9052090471EB1334696
:107540001A68AA42F1D90E490E4A0B7812789A426B
:1075500008D00D490D4A41F823404FF48013C2F87A
:107560000031F8BD531CDBB2022B08BF00230B70A7
:10757000EFE700BF00100140F4330020F03300209B
:10758000ED330020EC330020E433002000E100E084
:107590002DE9F04F8C4A8D4913780978DFF8508235
:1075A000994285B0D8F800A000F07B810133DBB2AE
:1075B000022B08BF002386481370864A076852F8DA
:1075C00023107B1823F07F43002403605346264694
:1075D0002046A446ABB11A688A4200F26581DC6895
:1075E000C3F800C0891A1044DA6934B13D1825F097
:1075F0007F45C3E90154DE611E4613460124002B7A
:10760000E9D1002C40F07C8101230093724B734F31
:10761000DFF8E09143F00103019355464FF0000B72
:1076200046B3D6E901C13446F669694B6C481A681D
:10763000ACEB020323F07F43834248D80B44236022
:1076400000220121C4E90122E2612174002D5DD0F4
:107650002A689A424DD2284603E00A689A424FD2DD
:107660000846C1699B1A0029F7D12360E161C46112
:10767000002ED6D178783978884264D00B4603EB57
:1076800043034C1CBA7807EBC303E1B28A421A7970
:10769000397004BF00213970022A9C6844D0032A43
:1076A00038D0012AE8D1227C002AE5D1D3F80CC0D9
:1076B000C4F804C01969A1605869E06099F8000035
:1076C0009B69A3610028B0D062609446ADE7A2EB4D
:1076D0000C0222F07F428A4202D28B1A2360AFE76B
:1076E00000230122C4E90033A360E36122746DB179
:1076F0002A68C8F80040D31A2B60E56125468FE759
:10770000D21A0A602360E161C461B1E7C8F80040A1
:10771000254685E7002DAFD000232B74ED69002DA1
:10772000FBD1C8F80050A5E74DB1AC422B4603D1C0
:10773000E4E094422FD01346DA69002AF9D10023FD
:10774000237488429AD1BBF1000F01D1554553D023
:10775000002D56D1234E244A1F4C4FF480334FF452
:1077600000310127C2F880103C43C6F848334FF47B
:107770003C60C6F808337760A047154BB7604FF4FC
:107780003C601D60A047194B1D70002389F8003034
:1077900005B0BDE8F08FA34200F09180E069216858
:1077A000D861002800F086802A4603680B440360F5
:1077B000AA424FF000033978787823741CBF15462D
:1077C0004FF0010BBDE700BFEC330020ED3300208C
:1077D000F0330020E4330020F0FE0200D432002019
:1077E000FEFF7F000010014000E100E0E1330020D7
:1077F000F4330020E0330020009B002BC5D0002D87
:10780000A8D0434B434A1C68D2F80465424FD5F8D0
:1078100000A03978331B23F07F43DD1CB9B93F4901
:107820003F4B4FF48030C2F844034FF00108C2F8D8
:1078300004034FF40030C1F8800143F001030860F5
:10784000C2F800804FF43C60984787F80080AA4552
:107850002CBF04EB0A0363192E4923F07F43C1F8C0
:107860004035D1F80425921B9B1B22F07F4223F068
:107870007F4303329A4288D9294BD1F80425C1F8B5
:10788000402543F001034FF43C609847234B4FF4ED
:107890000032C3F80021002389F8003005B0BDE8AC
:1078A000F08F00260096B1E674BB521A1A600123CD
:1078B0000093ABE6002339787878237441E71946C2
:1078C000EA69C8F8002092B9CDE90231114BDFF81E
:1078D00040C001209860019B89F80000CCF800208E
:1078E0004FF43C609847DDE90231D8F80020C869C0
:1078F0000968D86100287FF458AF59E72946DFE7C7
:10790000C8F800309A467FE6C8F800309A46CCE7BF
:10791000F033002000100140E133002000E100E0DE
:10792000F0FE02002DE9F8431F4D204E204FDFF8F6
:1079300098804FF480334FF400324FF00109002457
:10794000C6F8802047EA0907C5F848334FF43C6081
:10795000C5F80833C5F80490B847C5F808904FF447
:107960003C60C8F80040B847124A134B13491C60EA
:107970001470134B134A0C700B2114701C809970F7
:107980004FF48012E023C6F8802186F81433326069
:10799000C5F8084586F81133D5F80435C8F8003025
:1079A0002046BDE8F88300BF0010014000E100E080
:1079B000F0FE0200E1330020F4330020EC3300201D
:1079C000D4320020ED330020F0330020074B9B78A9
:1079D0004BB132B128B10368187C20B959745A618F
:1079E0007047072070470820704700BFD43200203E
:1079F0002DE9F047264CA37882B0002B3CD000281C
:107A00003AD004293CD94369002B35D0814602A8DD
:107A100099F811300026012B00F8016D0CBF884643
:107A2000B04617468A4600F0DFF96378A1782278DD
:107A30009DF807005D1CEDB2A94208BF3546AA4279
:107A400022D003EB430304EBC3030121114AC3F823
:107A500008901971D2F804256570C3E9032AC3E9B7
:107A6000058700F0E7F90C4B4FF480123046C3F85D
:107A7000002102B0BDE8F087082002B0BDE8F08721
:107A8000072002B0BDE8F08700F0D4F90420F0E749
:107A9000D43200200010014000E100E0F0B51A4CA3
:107AA000A37883B043B338B343692BB3064602A827
:107AB000002500F8015D357400F096F96278A7782A
:107AC00021789DF80700531CDBB29F4208BF2B466C
:107AD000994214D002EB420204EBC20202219660EA
:107AE0001171637000F0A6F9084B4FF4801228461C
:107AF000C3F8002103B0F0BD082003B0F0BD00F0D2
:107B000099F90420F9E700BFD432002000E100E039
:107B100030B50478012C83B027D017D3022C13D1B1
:107B2000384B394D1A78C168AA5C01918DF8004034
:107B3000002A33D103F10C000122344903F0B8F8D4
:107B4000334B68461B68984703B030BD3149324813
:107B5000FFF7B8FC002844D002A8032300F8083D32
:107B60002B4B1B68984703B030BD43682B4D1978E9
:107B70002846FFF78FFC40B3254B01908DF800405D
:107B80001B6868469847A968EB68AA885B1A9A42FE
:107B90000AD2234B01221A7003B030BD181D0122F6
:107BA0001A4903F0FFFACBE71648174A0378D35C6B
:107BB0002BB9012215490C3003F07AF8C4E70122F1
:107BC0001249043003F0EEFABEE7AA68EB689A4265
:107BD000D9D002AB0E4A03F8080D12681846904738
:107BE000D1E70848084A0378D35C2BB90122094938
:107BF0000C3002F0EBFFA7E701220649043003F046
:107C000073FAA1E7A42A0020003D002020340020C0
:107C1000F83300202434002010340020FC330020EE
:107C20000C3400202DE9F045324C89B02260002947
:107C300055D00C4680468A882F4809689A46FFF737
:107C400019FC10B109B0BDE8F085A289A1682B48E4
:107C5000FFF710FC0028F5D1294D98F810C0D8F88E
:107C60001470284E0FCD6C460FC495E80F0098F89D
:107C700011501CF1000C18BF4FF0010C002D84E8CE
:107C80000F00D8F80850D8F80040D8F8043006970C
:107C900014BF0E220022D8F80C708DF8152069460A
:107CA0003046194A8DF81CA08DF814C0CDE9027534
:107CB000CDE9003401F016FD0028C3D1D8F800301A
:107CC000124A01331070BDD0114A3378D35C53B9D6
:107CD00006F10C0001220F4902F0EAFFB2E707208B
:107CE00009B0BDE8F085301D01220A4903F05AFAB7
:107CF000A8E700BFF8330020FC3300201034002038
:107D0000F8FE0200A42A0020117B02000C3400209F
:107D1000003D00202034002070B5114C0146114870
:107D20002678FFF7CFFB05460EB9284670BD0E48F2
:107D30000E4A0378D35C0022227053B90C30012222
:107D40000B4902F0B5FF0028EFD0FFF74DFB2846A6
:107D500070BD01220649043003F024FAF3E700BFA6
:107D60000C340020FC330020A42A0020003D002019
:107D70002034002070B501461548FFF78BFB044600
:107D800008B1204670BD134D134E2B78F35CABB990
:107D900005F10C0002F080FF0028F2D10F490C48D9
:107DA000FFF790FB0028ECD12B780C49F35C012203
:107DB00043B90B48BDE8704002F008BF281D03F02E
:107DC000E3F9E9E70748BDE8704003F08DB900BF6B
:107DD00010340020A42A0020003D0020243400207C
:107DE000B02A0020A82A002070B4EFF3108472B6E5
:107DF0000D4B9A68AAB90D490D4E01259D60D1F829
:107E0000805035401D60C1F88060D1F884505D60BD
:107E10004FF0FF33C1F88430027004B962B670BC11
:107E2000704701230370F8E7F43C002000E100E014
:107E3000FC06FFBD094B9A687AB170B910B4EFF334
:107E4000108272B606491C680C605C684C609860D1
:107E500002B962B65DF8044B70477047F43C0020ED
:107E600000E100E030B482B050E8023F1FFAA3F511
:107E7000C488A54202BFBFF32F8F00220DE0C48942
:107E800025448489A54228BF2D1BC3EA054540E847
:107E90000254002CE8D14FF001028DF80320019329
:107EA000019B9DF803200B602AB14B8800681844A1
:107EB00002B030BC704702F0FF031846F8E700BF7D
:107EC0000A884B889A4201D00020704750E8022F60
:107ED000C2EA224240E80223002BF7D1012070477A
:107EE00001F01F024B09012100EB8300914000F0DB
:107EF0001FB800BF01F01F0201234909934000EBA6
:107F00008100D94300F020B84B0901F01F0150F85F
:107F10002300C84000F00100704700BF50E8002F68
:107F20000B4640E8003C9CF0000FF7D1104670472C
:107F300050E8003F43EA010240E8002C9CF0000FAB
:107F4000F6D11046704700BF50E8003F03EA010237
:107F500040E8002C9CF0000FF6D11046704700BF9F
:107F600050E8003F03EB010240E8002C9CF0000FBA
:107F7000F6D11046704700BF50E8003FA3EB010266
:107F800040E8002C9CF0000FF6D11046704700BF6F
:107F9000012350E8002F42EA030C40E800C191F0B1
:107FA000000FF6D160467047002350E800CF0CEA7E
:107FB000030240E8002191F0000FF6D160467047BF
:107FC000B8B130B4D0E90112521A0468D2B2531ECB
:107FD0002160DBB242B101680A685C1E551C0D606D
:107FE0001370E3B2FF2BF6D103680020187130BC88
:107FF00070470E20704700BFF0B583B002AB00257C
:1080000003F8015D04461846FFF7EEFED4E900319F
:108010001A688A4210D9511E19602168A3680F6836
:1080200012F8015C0A79A68AE068DB1BDBB29A428F
:1080300006FB050538BF0B719DF80700FFF7FAFE38
:10804000284603B0F0BD00BF30B583B002AB0022BC
:1080500003F8012D054618460C46FFF7C5FE2A68B1
:108060001368591C1160E968AA8A641AB4FBF2F417
:108070001C709DF80700FFF7DDFE03B030BD00BFA8
:10808000826842B110B504464369016800699847A7
:108090000023A36010BD70470EB400B582B00399F1
:1080A00029B102AA04AB42F8043D00F08BF802B0FB
:1080B0005DF804EB03B070472DE9F84F8846904512
:1080C000174605461E46DDE90AB175D343464FF013
:1080D0000109B3FBF7F39F4209F10109F9D9B14551
:1080E00038BFB14611F0010AAA6802D1BBF1000FF6
:1080F00043D1012402E0013E07FB04F4012EFAD82B
:10810000B8FBF4F18F42F7D92D4E05E0B4FBF7F43C
:10811000A4B1B8FBF4F1AA68705C531CAB602B6887
:108120009854D5E901329A4204FB1188EED32846CF
:10813000FFF7A6FFB4FBF7F4002CEAD1BAF1000F69
:1081400015D0BBF1000F12D0CB4510D92024AB685D
:108150002A68591CA960D454D5E901329A420BF11E
:10816000FF3B06D2BBF1000F01D0CB45EFD1BDE8FC
:10817000F88F2846FFF784FFF4E78B0717D42024F5
:10818000CB45B6D92B68511CA9609C54D5E9013266
:108190009A420BF1FF3B05D2BBF1000FA9D0CB45B2
:1081A000F0D1A6E72846FFF76BFFAA68F4E7002E98
:1081B0000CBF30242024E3E74FF001098FE700BF14
:1081C00018FF0200002900F0F4812DE9F04F054668
:1081D00085B092460C460B78DFF8A0B501E0237815
:1081E00093B1013483B1252B15D0AA682968501C9E
:1081F000A8608B54D5E901329A42F0D32846FFF7A4
:108200003FFF2378002BECD12B7B002B40F0148117
:1082100005B0BDE8F08F2146002711F8012B2D2A6B
:1082200000F0E180302A00F0E2802B2A00F0D280BA
:108230002A2A00F0E080A2F13006F3B2092B03D91C
:10824000B8E1A3F130060146084606EB860310F8B4
:10825000012BA2F13004092C02EB4303F1D92E2AA1
:1082600000F0D5800023013101E011F8012B02F06C
:10827000FB0068280C46F8D0253A532AAFD801A154
:1082800051F822F045840200DF810200DF81020004
:10829000DF810200DF810200DF810200DF81020056
:1082A000DF810200DF810200DF810200DF81020046
:1082B000DF810200DF810200DF810200DF81020036
:1082C000DF810200DF810200DF810200DF81020026
:1082D000DF810200DF810200DF810200DF81020016
:1082E000DF810200DF810200DF810200DF81020006
:1082F000DF810200DF810200DF810200DF810200F6
:10830000DF810200DF810200DF810200DF810200E5
:10831000DF810200DF810200DF810200DF810200D5
:10832000DF810200DF810200DF810200DF810200C5
:10833000DF810200DF810200DF810200DF810200B5
:10834000DF810200DF810200DF810200DF810200A5
:108350005F840200DF810200DF810200DF81020012
:10836000DF810200DF810200DF810200DF81020085
:10837000DF810200DF810200DF81020079840200D8
:108380009B840200DF810200DF810200DF810200A6
:10839000DF8102009B840200DF810200DF81020096
:1083A000DF810200DF810200DF810200DF81020045
:1083B000EB840200DF810200DF8102005F850200A2
:1083C000DF81020099850200DF810200DF81020067
:1083D0005F84020047F004070C46214611F8012B88
:1083E0002D2A7FF41FAF47F001070C46F5E747F051
:1083F00002070C46F1E7DAF800301A1DCAF800202F
:1084000062781E682E2A04F102007FF42BAF4A78AE
:10841000A2F13003092B00F25081002303EB830308
:1084200002EB430310F8012FA2F130010929A3F157
:108430003003F3D9014616E7284605B0BDE8F04FF2
:10844000FFF71EBEAB682A68591CA9604FF02501D2
:10845000D154D5E901329A42FFF4C1AECEE6DAF842
:108460000020111DCAF8001011682846CDE90067E8
:108470001022FFF721FEB2E6DAF80020131DCAF839
:108480000030AB6829681278581CA860CA54D5E936
:1084900001329A42FFF4A3AEB0E6DAF80020111DD3
:1084A000CAF80010D2F8008088EAE872A2EBE872FD
:1084B000092A4FF0010107DDAF48A0FB0202D208F4
:1084C000092A01F10101F7DC994238BF19468946B2
:1084D00007F00202002E71D12AB1002B00F0478173
:1084E000FA0700F18D8000268AE0DAF80020131DDB
:1084F000CAF80030AB6829681768581C3022A86099
:10850000CA54D5E90123934280F028812A68581C77
:108510007821A860D154D5E90123934280F01981D4
:108520000F2F03D93A4612090F2AFCD84FF0805674
:1085300003E036093FF453AEAB682968B7FBF6F2A7
:10854000581CA8601BF80200C854D5E901319942B3
:1085500006FB1277EDD32846FFF792FDE9E7DAF83C
:1085600000301A1DCAF80020D3F80080FB077ED522
:108570004746A7EB080917F8013B002B5DD0AA6816
:108580002968501CA8608B54D5E901329A42F0D377
:108590002846FFF775FDECE7DAF80020111DCAF850
:1085A000001011682846CDE900670A22FFF784FD14
:1085B00015E6704708460026214650E6B8F1000F40
:1085C00001DB780700D5013E02B1CBB1F90717D422
:1085D000002E88D0B14513D220220393A9682B68BE
:1085E000481CA8605A54D5E90131994206F1FF367A
:1085F0005DD2002E00F0BD80B145EFD1039B4E4609
:10860000B8F1000FC0F292807A070AD5A9684A1C17
:10861000AA602A682B205054D5E90121914280F0AC
:10862000928007F00302022A5FD0CDE9006741463D
:108630000A222846FFF740FDD1E54E457FF6CFAD33
:10864000202705E04E453FF4CAAD002E3FF4C7ADEC
:10865000AB682A68591CA960D754D5E901329A42FF
:1086600006F1FF36EED32846FFF70AFDEAE7B8F138
:10867000000F24D0404606F0A5FA0746BE4220D996
:10868000FEB14FF0200902E0BE421AD0CEB1AB6875
:108690002A68591CA96002F80390D5E901329A4270
:1086A00006F1FF36F0D32846FFF7EAFCECE7284650
:1086B0000292FFF7E5FC029A9BE70146D2E54746A6
:1086C000DCE708F1FF3818F8013F002B3FF487ADD5
:1086D000AA682968501CA8608B54D5E901329A42D7
:1086E000F1D32846FFF7CCFCEDE7002B9DD1002EFF
:1086F0003BD0B14599D2029323464C469946AA688D
:108700002B68501C4FF03001A8609954D5E9013214
:108710009A4206F1FF3605D22EB3B442EFD1029B46
:108720004C4682E72846FFF7ABFCF5E7A9684A1CF0
:10873000AA602A682D205054D5E901219142C8F140
:108740000008FFF46EAF28460293FFF799FC029BE6
:1087500067E72846FFF794FCAB68E1E62846FFF799
:108760008FFCAB68D2E6029B4C4600265DE71E46B6
:1087700046E7039BB7E600BFCDCCCCCC18FF020088
:1087800018B103680BB1DB69184770B50D4C0E4D7D
:108790000E4B2D1BA3FB05352D0910D005EB8505D0
:1087A00004EB850501E0AC4209D02368204614346F
:1087B000002BF8D0DB6998470028F4D070BD00206A
:1087C00070BD00BF1C2D00201C2D0020CDCCCCCCBA
:1087D00029DF704728DF7047034B187A0122B0FA6F
:1087E00080F05A74400970472834002030B55E4C40
:1087F000237A87B0002B3AD05C4B1B68022222728E
:108800001A79002A3ED0012A0CD1D3E90302104480
:10881000FFF7E0FF002849D0112803D1012323727C
:1088200007B030BD19688A68C2B10022684600925C
:10883000C0E902220325026101959A6805921A791E
:10884000002A4BD0012A07D102228DF80020DA68D5
:10885000120302925B6904938B6898470023444992
:10886000444823726360FFF72BFB07B030BD4049DB
:108870004048FFF7F7FA3D4A034610600028BDD193
:108880006060F2E7D3E90525521BB2F5805F28BF8F
:108890004FF48052D3E903109208012A38BF012215
:1088A00029442844FFF794FF0028B5D1227C002AF0
:1088B000DBD1227A002AD8D0022A0AD1E0601A79C4
:1088C000DAB1012A05D1D3E9042101328A421A61C1
:1088D0001FD0637C73B105F0A3FCC6E701228DF8BD
:1088E00000201A690292DA6803925B6904938B682C
:1088F0009847B3E7FFF77AFFB7E7D3E90512881A7D
:10890000B0F5805F94BF121802F5805291429A61CF
:10891000DFD10022227219688868A8B168460092E7
:10892000C0E90122C0E903229A6805921A7982B14E
:10893000012A07D102228DF80020DA681203029280
:108940005B6904938B68984709490A48FFF7B8FAAE
:10895000BFE701228DF800201A690292DA680392BB
:108960005B690493EEE700BF283400204034002008
:108970003C340020B82A002000F0FD03012B00D079
:10898000704730B5604CA0F10100B0FA80F0237A56
:108990004009002287B020746274002B3AD05B4BF0
:1089A0001B68022222721A79002A3ED0012A0CD1B9
:1089B000D3E903021044FFF70DFF002849D0112826
:1089C00003D10123237207B030BD19688A68C2B190
:1089D000002268460092C0E9022203250261019547
:1089E0009A6805921A79002A4BD0012A07D10222EF
:1089F0008DF80020DA68120302925B6904938B6899
:108A0000984700234249434823726360FFF758FAAE
:108A100007B030BD3E493F48FFF724FA3B4A0346C2
:108A200010600028BDD16060F2E7D3E90525521B34
:108A3000B2F5805F28BF4FF48052D3E9031092084B
:108A4000012A38BF012229442844FFF7C1FE00282B
:108A5000B5D1227C002ADBD1227A002AD8D0022A82
:108A60000AD1E0601A79CAB1012A05D1D3E90421FB
:108A700001328A421A611DD0637C63B105F0D0FBDC
:108A8000C6E701228DF800201A690292DA68039283
:108A90005B690493B3E7FFF7A9FEB9E7D3E90512D1
:108AA000881AB0F5805F94BF121802F58052914287
:108AB0009A61E1D10022227219688868A8B16846DB
:108AC0000092C0E90122C0E903229A6805921A794E
:108AD00082B1012A07D102228DF80020DA68120340
:108AE00002925B6904938B68984709490948FFF72C
:108AF000E7F9C1E701228DF800201A690292DA68CD
:108B000003925B690493EEE7283400204034002090
:108B10003C340020B82A0020831E012B00D9704766
:108B200030B58E4C237A87B0002B31D0022B2BD15D
:108B300003286BD1E3680133082B79D9884B0022D5
:108B40001B68E26022720D2519688A68C2B1002292
:108B500068460092C0E90222026101959A68059276
:108B60001A79002A00F0B980012A07D102228DF873
:108B70000020DA68120302925B6904938B689847BD
:108B800078497948FFF79CF9637C1BB105F048FBF5
:108B900007B030BD237A002B5BD0714B1B680222DB
:108BA00022721A79002A5FD0012A0BD1D3E903027D
:108BB0001044FFF70FFE002869D0112802D10123CD
:108BC0002372E5E719688A68C2B1002268460092FC
:108BD000C0E902220325026101959A6805921A797B
:108BE000002A70D0012A07D102228DF80020DA680D
:108BF000120302925B6904938B68984700235949DA
:108C0000594823726360FFF75BF9C1E7544B0022B8
:108C10001B68E2601A796AB1012AB5D1D3E904214F
:108C200001328A421A6111D0637C002BAED1B4E7C5
:108C3000E360F9E7D3E90512881AB0F5805F94BFC5
:108C4000121802F5805291429A61EDD100252572E9
:108C50007AE744494448FFF705F9414A0346106062
:108C600000289CD1606093E7D3E90525521BB2F53B
:108C7000805FD3E9031028BF4FF480529208012A85
:108C800038BF012229442844FFF7A2FD93E7227C44
:108C9000002A7FF47DAF227A002A3FF479AF022ABE
:108CA0000AD1E0601A7912B3012A05D1D3E904216F
:108CB00001328A421A6126D0637C002B7FF466AFB2
:108CC000FFF794FD64E701228DF800201A690292F3
:108CD000DA6803925B6904938EE701228DF8002025
:108CE0001A690292DA6803925B69049346E7D3E952
:108CF0000512881AB0F5805F94BF121802F58052F1
:108D000091429A61D8D10022227219688868A8B16C
:108D100068460092C0E90122C0E903229A680592E0
:108D20001A7982B1012A07D102228DF80020DA686F
:108D3000120302925B6904938B68984709490A48B9
:108D4000FFF7BEF8B8E701228DF800201A690292F9
:108D5000DA6803925B690493EEE700BF28340020D1
:108D6000403400203C340020B82A0020FFF728B906
:108D70002DE9F041858ACE1C043D2E440746B6FB02
:108D8000F5F6FFF739F978B3F6B24FF48073013E88
:108D90000446C5800760838027D08046002509E00F
:108DA0006379AE4203F101036371C8F80000076004
:108DB00080461AD03846FFF71FF901350028EFD159
:108DC0006679721E14D02346013082421B68FBD1A3
:108DD0001F684EB1002523682146013538461C46E0
:108DE000FFF732F9AE42F6D100242046BDE8F0810B
:108DF0002768EFE704300121FFF7B2B8F8B5012189
:108E000004460430FFF7B8F8C0B200B1F8BD667987
:108E1000721E12D02346013082421B68FBD11F68AC
:108E2000002EF3D0002523682146013538461C4624
:108E3000FFF70AF9AE42F6D1F8BD2768F2E700BFA6
:108E40002DE9F8430446181DE688B0FBF6F30F46FB
:108E5000904606FB130013B1013B2468FCD1351A80
:108E6000454528BF4546B8F1000F15D04FF0000921
:108E70000430A8EB050820442A4607EB090105F059
:108E80006DFE4645A944246835464FF0000028BFD2
:108E90004546B8F1000FEBD1BDE8F8832DE9F84362
:108EA000C688043304460F46B3FBF6F0904606FB33
:108EB000103110B101382468FCD1751A454528BF1E
:108EC0004546B8F1000F15D04FF000090431214498
:108ED000A8EB05082A4607EB090005F03FFE4645CA
:108EE000A944246835464FF0000128BF4546B8F133
:108EF000000FEBD1BDE8F88341DF7047064A074B0E
:108F000010B5002414701C60BFF35F8F044905483E
:108F100000F032F8204610BD4C34002050340020C0
:108F200048FF02004434002000B583B002A80023AB
:108F300000F8013DFEF758FFF1EE103A23F09F03D1
:108F4000E1EE103ABFF35F8F0A4B4022C3F8842151
:108F50009DF80700FEF76EFF05F072F928B920BFF3
:108F600040BF20BF03B05DF804FBFFF7C5FF03B0AF
:108F70005DF804FB00E100E001600B6843604A68B3
:108F8000934204BF00234360704700BF436843B16E
:108F9000026891680B4443605268934204BF002307
:108FA0004360704730B4184DA5F59472AB1ADB10CE
:108FB00003EBD3735B1002EBC30152F833309842DA
:108FC00028BF0C4605D311E052F8333098420CD23A
:108FD00021468B1ADB1003EBD3735B108A4202EB42
:108FE000C304F1D3094830BC70470D46984204D9F8
:108FF00004F10802AA42D9D3F4E76068034B0028C1
:1090000008BF1846EFE700BF9C00030060FF0200A6
:1090100070B5161E07DD0C468D1914F8010BFEF70E
:10902000A9FEA542F9D1304670BD00BF10B50C466F
:109030002046FEF771FE0528FAD0012010BD00BFC2
:1090400030B4904B1B78062B20D08F4B1B68062B1F
:1090500000F085808D4AD2F8883043F47003C2F85E
:109060008830BFF34F8FBFF36F8F4FF01023D3F8CB
:109070000022002AC0F28681D3F80432002BC0F20D
:109080008181834B834A1A6030BC7047824B1B68D6
:109090001D07DAD1814B1B6803F0F002302A00F083
:1090A0009E8003F0E003402B00F099807B4B1B680F
:1090B00003F0F003302B00F0B980784B1B6803F00D
:1090C000F002302A56D003F0E003402B52D0734B0D
:1090D0001B6803F0F003302B00F0B6806F4B1B6869
:1090E00003F0F002302A66D003F0E003402B62D098
:1090F0006A4B1B6803F0F003302B00F0B580674B20
:109100001B6803F0F003302B79D0644B1B6803F02D
:10911000F003502B00F0E480604B1B6803F0F0027A
:10912000302A37D003F0E003402B33D05B4B1B6871
:1091300003F0F002302A03D003F0E003402B84D187
:109140004FF08043D3F80024D20744BF6FF00102F0
:10915000C3F800244C4B1B68062B7FF47BAF504BAD
:109160001B68062B7FF476AF4E4A136843F4806386
:1091700013606FE74C4B434A1B6812784B49C3F3AB
:109180004233062A0B6048D1434B1B6819077FF412
:109190005CAF9CE7464A3B4B12681B78454902F09E
:1091A0004F02062B0A607FF450AF3B4B1B68190738
:1091B0007FF44BAFBAE74FF080430022C3F80C2195
:1091C000C3F81021C3F838252E4B1B78062B7FF4EB
:1091D0003CAF314B1B681B077FF437AF88E7364B3A
:1091E000284A1B6812783549C3F30423062A0B600A
:1091F000EAD1294B1B681C077FF427AF56E7304C98
:10920000204A304912783048304B05252560012529
:109210000D6000243F2104601960062A7FF415AF19
:109220001D4B1B681C077FF410AF6EE7154B284AD7
:109230001B7828491160062B7FF407AF164B1B687B
:1092400018077FF402AF38E723490E4BCA681B7832
:1092500022F08072062BCA607FF4F7AE0E4B1B68BB
:109260001A077FF4F2AE39E7064B1C4A1B7803213C
:10927000062B11607FF4E9AE074B1B681D077FF4D6
:10928000E4AE3CE7E00F00F03001001000ED00E03C
:10929000CC2A00200090D003E40F00F0E80F00F08B
:1092A000340100103C170040440200103C0500400F
:1092B00058020010E40E0040240300104035014025
:1092C0001056004088560040185600401456004082
:1092D00074C007400DF0ADBAF0ED00E0A00500400D
:1092E0004FF08053404AD3F80414C2F82015D3F845
:1092F0000814C2F82415D3F80C14C2F82815D3F8B2
:109300001014C2F82C15D3F81414C2F83015D3F881
:109310001814C2F83415D3F81C14C2F84015D3F849
:109320002014C2F84415D3F82414C2F84815D3F811
:109330002814C2F84C15D3F82C14C2F85015D3F8E1
:109340003014C2F85415D3F83414C2F86015D3F8A9
:109350003814C2F86415D3F83C14C2F86815D3F871
:1093600040142248C2F86C15D3F844140378C2F8AC
:109370007015062B7FF469AE1D4B1B6818077FF430
:1093800064AEC9E61B4B0122C3F80425D3F80024C0
:10939000002AFBD04FF0102315221649C3F80022F3
:1093A000D1F80034002BFBD04FF010221521114BC7
:1093B000C2F80412D3F80024002AFBD000220D4981
:1093C000C3F80425D1F80034002BFBD0BFF34F8F36
:1093D00009490A4BCA6802F4E0621343CB60BFF349
:1093E0004F8F00BFFDE700BF00C00040E00F00F05E
:1093F000E40F00F000E0014000ED00E00400FA0599
:10940000054A4FF0A043105CD3F8043523FA00F06E
:10941000C04300F0010070478C040300044B195C4A
:109420004FF0A04201238B40C2F80C35704700BFBB
:109430008C040300044B195C4FF0A04201238B40C5
:10944000C2F80835704700BF8C0403004FF0A043FA
:1094500010B44FF480204FF400344FF400214FF447
:109460008012C3F80845C3F80805C3F80815C3F807
:1094700008255DF8044B70474FF0A04310B44FF43B
:1094800080204FF400344FF400214FF48012C3F8D1
:109490000C45C3F80C05C3F80C15C3F80C255DF892
:1094A000044B7047074B4FF0A041185CD1F80435CE
:1094B0000122824022EA03001340C1F80805C1F8E6
:1094C0000C3570478C040300054A4FF0A043105C34
:1094D000D3F8103523FA00F0C04300F001007047C4
:1094E000880403000D2809D00E2809D00F2809D0C0
:1094F00010280CBF03204FF0FF307047002070474A
:109500000120704702207047014B185C704700BF74
:1095100088040300C20730B41AD54FF0A0430322D9
:10952000C3F844274FF40035C3F848274FF480248C
:10953000C3F84C274FF40021C3F850274FF4801292
:10954000C3F80855C3F80845C3F80815C3F808253B
:1095500083070AD54FF0A0430C22C3F83427C3F881
:109560003827C3F83C27C3F8402730BC704700BFFA
:1095700010B570B101280BD10D4C2369A0703BB11F
:10958000D3E900230120226198472369002BF7D1FA
:1095900010BD074CA36801226270002BF8D0D3E9FC
:1095A00000230020A2609847A368002BF7D1EFE7C3
:1095B0005434002070B910B5074CA36801226270C2
:1095C0003BB1D3E900230020A2609847A368002B99
:1095D000F7D110BD704700BF5434002030B50128CA
:1095E00083B01CD015D3032811D100F06BF902A869
:1095F00000231F4C00F8013DFEF7F6FBE368013B3A
:10960000E360E56865B39DF80700FEF713FC03B05F
:1096100030BD184B0122C3F8802003B030BD02A832
:109620000023134C00F8013DFEF7DEFB237853B115
:10963000E3689DF8070001330122E360A270FEF7A2
:10964000F9FB03B030BD0C486360A3602361E360A5
:1096500000F02AF904F0F4FD30B101232370E7E7AC
:1096600000F044F9A570CEE700F02CF9F5E700BF53
:109670005434002000E100E07195020030B585B05F
:109680000478094A094B45688DF80040047AC0689F
:10969000039053F8213001958DF8084052F82110BD
:1096A0006846984705B030BD683400206C3400200F
:1096B00030B585B0047845688DF80040D0E90240A7
:1096C000064A074B039053F8213001958DF8084066
:1096D00052F821106846984705B030BD6834002024
:1096E0006C340020F0B51A4B06781A4D0C6991F8CD
:1096F0001DE045F826400746174803F806E040F805
:1097000026200C4694460FCC89B06D460FC594E8D0
:109710000F0085E80F000496BEF1000F0BD0BCF1DE
:10972000000F0E4A694607F1040008BF002201F04D
:10973000F9FB09B0F0BDBCF1000F094A694607F119
:109740000C0008BF002201F06FF909B0F0BD00BFA6
:10975000003D0020683400206C3400207D9602001B
:10976000B196020030B585B0057804798DF80050C7
:109770008DF80440457984688DF805508DF80640D1
:10978000C568084A084B8DF80750D0E9044053F8E3
:10979000213052F82110CDE902406846984705B0C3
:1097A00030BD00BF70340020783400202DE9F04F28
:1097B000824690F80090384D384845F829300C46DC
:1097C000497B40F8292081B0934669B9344ABBF1FE
:1097D000000F4B4621460AF1040008BF002201B0E9
:1097E000BDE8F04F00F07CB923682E4A4FF0A04549
:1097F00003F5E07340F20C6145F82310636803F54C
:10980000E073012745F82310236807FA03F3C5F82E
:109810000835636807FA03F3C5F80835236803F5CC
:10982000E07340F20D6145F82310636803F5E073BF
:1098300042EA070845F823104FF48070C04700261D
:109840006268D5F81035D340DB074FF4807020D420
:10985000236807FA03F3C5F80C35C047236807FAF5
:1098600003F30136C5F808354FF48070C047092E60
:10987000E6D1626801254FF0A04605FA02F2C6F86B
:109880000C254FF48070C04763689D40C6F80855AA
:109890009CE7002EEED199E7703400207834002048
:1098A00065970200A0040300054A13792BB9012132
:1098B000106053711846117170478520704700BFC2
:1098C00080340020084B1A68D20706D40122E02118
:1098D00083F80013C3F880211A604FF080430122FF
:1098E000C3F81825704700BF00E100E0044B0122D7
:1098F0001A604FF08042D2F81834DB03FBD4704773
:109900000C00004010B5154B1A6882B07AB10021E6
:10991000134A19601B68507900934FF0804101236E
:10992000009CC1F8083310B91168537188470D4B7A
:109930001A6882B100221A601B6801934FF08042BE
:109940000221074B0198C2F808131B68012002B0DE
:10995000BDE81040184702B010BD00BF0001004034
:109960008034002004010040F0B55A4BD3F8242184
:109970008DB0BAB10022C3F82421D3F82421059276
:10998000059AD3F804216AB9534A02219068C3F8B2
:10999000080391609268C3F8042301221A625A6195
:1099A0000DB0F0BD4B4C4C4DD4F80431002B2ED0F3
:1099B0000023C4F8043105F10C070FCF07AED4F82B
:1099C00004C13F68CDF810C00FC695F82E30049A38
:1099D000376095F83020002B33D02B7B012B71D0D2
:1099E000D4F84C150891022B6FD1D4F83C15394BA3
:1099F00009910021C3F86011D3F860010290029828
:109A0000C3F85C11D3F85C310393039B26E0C4F8E0
:109A10004831D4F848212B7B0192019A002B38D190
:109A200005F10C070FCF07AE0FC695F830203B6845
:109A30003360DAB9294BC4F80022AA60C4F80833AD
:109A400014E0C4F86031D4F8601102910299C4F8AE
:109A50005C31D4F85C310393039B3AB91D4B1F482A
:109A60000021C3F80012A960C3F808031949D1F80E
:109A7000C434C1F8C43499071DD501238DF81830BA
:109A80000AB985F82F20D5E9003106A898470DB00E
:109A9000F0BD4FF4007140F20222104BC4F80012E6
:109AA000AA60C4F80833AB68C4F804330123A36088
:109AB00023620DB0F0BD13F0040318BF02238DF82C
:109AC0001830DDE7D4F83C350893024BD3F84C1539
:109AD0008DE700BF003000408834002002029C0166
:109AE0002DE9F84F06793A4F342404FB06F807EBCA
:109AF000080999F82D50002D5ED10C468346354952
:109B000000681D46924600F07FFE002857D147F8B6
:109B100008A0C9F80800C9F8045089F82F0089F88E
:109B20003000637B89F8323023684FF0A04203F5A0
:109B3000E07340F20C6142F82310636803F5E073B0
:109B400042F82310D4E90021DBF80030C3F80825DF
:109B5000C3F80C15A268C3F82425BAF1000F23D06E
:109B6000DBF80010237B090B4AB25B01002ADBB251
:109B700028DB02F1604202F5614282F80033DBF833
:109B80000020120B42F3C40323F0604323F00303CD
:109B900003F1604303F5614302F01F02012101FA62
:109BA00002F2C3F880211A60342303FB06730122FA
:109BB00083F82D20BDE8F88F0820BDE8F88F11202C
:109BC000BDE8F88F044A01F00F010A441376D6E786
:109BD0008834002069990200FCEC00E0F8B50579B2
:109BE000264E0368342202FB05F20446B258002ACE
:109BF00041D01B0B5AB25209203203F01F0301213E
:109C00001F4801FA03F340F82230227923681D49E6
:109C1000342707FB026200209060C3F80813D3F8D2
:109C200000124FF0010C21F4BC51C3F8001282F86D
:109C30002DC0C3F80005206800F00CFE07FB05638B
:109C400093F8323083B92368D3F808354FF0A04237
:109C500003F5E073022142F823102368D3F80C3592
:109C600003F5E07342F82310342303FB056500235A
:109C700085F82D30F8BD2A46C9E700BF883400209A
:109C800000E100E002029C010379064902683420E9
:109C900000FB03130220062183F82D00C2F80015F3
:109CA000704700BF883400202DE9F04F8DB0174673
:109CB0009DF85840002C02F060444FF000020CBFA9
:109CC00093464FF0200BB4F1005FCDE90722CDE9B8
:109CD00009220B925CD190F804A0DFF84CE10568F2
:109CE0003426984606FB0AE64D4BC5F8083396F82D
:109CF0002F3003F0FF0C002B4ED18DF81D10CDF846
:109D000020800A9707AC89460FCC01944FF00104DC
:109D100086F82F40C5F88895C5F804C1D5F8049198
:109D2000CDF8109006F10C09A9E80F00049BC5F8C6
:109D300024C1D5F824310593019B059A1B68C5F809
:109D400050C586F830C0C5F840C5C9F80030C5F820
:109D50004475C5F84885BBF1000F24D14FF400725B
:109D600040F20223C5F800224FF48271B36034231D
:109D7000012203FB0AF32A62AA605EF8030073441F
:109D800000B39B68C5F8043300200DB0BDE8F08F28
:109D900010200DB0BDE8F08FB368C5F80433112072
:109DA0000DB0BDE8F08F1F4B4FF48072C5F8002254
:109DB000B360C5F848C1D5F848310393039B4FF40D
:109DC000A471D4E71046294402E0D5F82421D2B981
:109DD0000B68002BF9D0342303FB0AEED5F8C4340A
:109DE000C5F8C43400228EF82F20BBB113F0020F47
:109DF00048F2012048F2022208BF032013F0040FAA
:109E000018BF1046C5E7C5F82431D5F824310693AC
:109E1000069B28624FF482716861D4E71846B8E760
:109E200002029C0100020400883400202DE9F04F5A
:109E300002F060448BB09646B4F1005F4FF0000230
:109E4000CDF81A20CDF81620CDF81E20CDF822200E
:109E5000ADF8262057D10279DFF820B104680192CD
:109E60004FF0340808FB02F89A460BEB080C424B03
:109E7000C4F808339CF82F3003F0FF05002B46D1BF
:109E80004FF001098DF81510CDF818A0CDF820E09D
:109E90008DF8149005AF0E460FCF8CF82F90C4F8B4
:109EA0008865C4F80451D4F8046102960CF10C06DC
:109EB0000FC6029BC4F82451D4F8243103933968A7
:109EC00003988CF8305040F202234FF48052C4F8CB
:109ED00050553160C4F84055C4F834E5C4F838A58D
:109EE000C4F80022CCF80830C4F82090C4F80090E0
:109EF0005BF808309BB1DCF80830C4F8043328461E
:109F00000BB0BDE8F08F10200BB0BDE8F08FDCF88F
:109F10000830C4F8043311200BB0BDE8F08F4A4676
:109F200002E0D4F82411E1B9D4F80431002BF8D0C0
:109F3000019A342303FB02BBD4F8C434C4F8C434FC
:109F400000228BF82F20ABB113F0020F48F2012052
:109F500048F2022208BF032013F0040F18BF104676
:109F6000CEE7C4F82431D4F824310493049B226250
:109F70006261D9E71846C3E702029C0188340020D9
:109F800070B51E4C94F8585082B0A5BB4FF0FF330B
:109F90002946042204F15400C4E90033C4E9023321
:109FA000C4E90433C4E90633C4E90833C4E90A3315
:109FB000C4E90C33C4E90E33C4E91033C4E91233E5
:109FC000236504F0D6FD0E4B0E4A0F4E1560E021BE
:109FD00083F806134021C3F88011196013680193B8
:109FE00001994FF000430122284684F85820C6F812
:109FF000043302B070BD082002B070BDBC34002034
:10A0000000E100E07C61004000600040034B93F8F9
:10A010005800003018BF0120704700BFBC3400203A
:10A02000F0B56C4B1C1894F93050002D68DA8E781E
:10A03000C6F340069646002E5CD11D6A013500F03D
:10A04000B58009240C2553F8247001375BD004F146
:10A05000010C53F82C70013700F0B380A71CAF42FD
:10A0600046D253F82720013200F0AD8004F1030CF2
:10A07000AC453DD253F82C70013700F0A28004F1BA
:10A08000040CAC4534D253F82C70013700F09980A1
:10A0900004F1050CAC452BD253F82C70013700F0BD
:10A0A000908004F1060CAC4522D253F82C70013795
:10A0B00000F0878004F1070CAC4519D253F82C70DE
:10A0C00001377ED004F1080CAC4511D253F82C7046
:10A0D000013776D004F1090CAC4509D253F82C7045
:10A0E00001376ED00A34AC4202D2DC6A013409D0A6
:10A0F0000420F0BD1D68013567D001240825A2E7C2
:10A100000820F0BD0B241F1865B243F824E087F83F
:10A110003050002E51D08A78540714D4D6073BD43F
:10A120004C784FF0A04600F5E072A40046F82240BB
:10A13000294EC40800F0070C375D012202FA0CF228
:10A140003A4332558A780C7812F0020209D1083D60
:10A150002B44104693F8502042EA841483F8504070
:10A16000F0BDAB0003F1804303F5C0430202D3F816
:10A17000101521F4473121F44071C3F8101524045F
:10A18000D3F8101504F4403402F4F85222430A4381
:10A19000C3F810250020F0BD820002F1A042D2F8E1
:10A1A000004724F00204C2F80047C1E7082684F8FB
:10A1B0003060C3F820E0354634461C4484F848003B
:10A1C000A9E764469FE73C469DE700251A6084F8AE
:10A1D0003050A0E7BC3400201035002070B42E4D64
:10A1E0002E1883B096F93030072B1CDD2B4493F8E2
:10A1F00048309B09032B41D0012B14BF4FF4403151
:10A200004FF40031800000F1A040D0F8002722F484
:10A210004032C0F80027D0F800370B43C0F80037B1
:10A2200003B070BC7047DAB2072AF9D8980000F181
:10A23000804000F5C04003F14002D0F81045920084
:10A2400092B244F0010402F18042C0F8104502F5D8
:10A25000C04200200190019C10600029E0D096F9D6
:10A26000302055F82220002ADAD001220B4902FAC8
:10A2700003F3C1F8043303B070BC70474FF0A04340
:10A28000D3F81035C34013F0010F0CBF4FF4003169
:10A290004FF44031B6E700BFBC34002000600040FE
:10A2A0004FF0A043D3F8103523FA00F000F001007E
:10A2B000704700BF2DE9F04186B00023A14A019309
:10A2C0001668012E00F054811E469F4B1A68012A21
:10A2D00000F05D819D4B1A68012A00F06A819C4B59
:10A2E0001A68012A00F077819A4B1A68012A00F057
:10A2F0008481994B1A68012A00F09181974B1A6862
:10A30000012A00F09E81964B1A68012A0CD0954BC9
:10A310001B68012B00F0A58116F0FF0F15D1002E50
:10A3200030DB06B0BDE8F0818F4AD2F8042317066F
:10A33000EDD500221A601A6804926033049A1B68F3
:10A34000012B46F0800600F08C81884F0024012507
:10A35000A30003F18043354203F5C0434FEA4505AE
:10A360000BD0D3F8100557F82420D3F81015C0F3FC
:10A370000420C1F3014102B190470134082CE7D118
:10A38000002ECEDA00224FF0FF33CDE90223774CC6
:10A39000012602AF94F950305D1C2CD0DBB223F0C3
:10A3A000C00006AA4FEAD00C02EB0C0E03F0070225
:10A3B0001EF80C1C06FA02F211421CD0251899094D
:10A3C00095F9303054F82330002B00F098810329A0
:10A3D00000F098814FEA800C0CF1A04C1EF8145C40
:10A3E000DCF800E71540CEF3014E40F05C81BEF191
:10A3F000030F00F0DE81002594F95130581C2DD058
:10A40000DBB223F0C00006AA4FEAD00802EB080E28
:10A4100003F007011EF80C2C06FA01FC12EA0C0FDF
:10A420001CD02218990992F9303054F82330002BAF
:10A4300000F05B81032900F05B81820002F1A04201
:10A440001EF8148CD2F800E718EA0C0FCEF3014E78
:10A4500040F03681BEF1030F00F0A68194F952302E
:10A46000591C2DD0DBB223F0C00006AA4FEAD00859
:10A4700002EB080E03F007011EF80C2C06FA01FC93
:10A4800012EA0C0F1CD02218990992F9303054F8B6
:10A490002330002B00F03C81032900F03C81820036
:10A4A00002F1A0421EF8148CD2F800E718EA0C0F53
:10A4B000CEF3014E40F0E380BEF1030F00F06E8159
:10A4C00094F953305A1C2DD0DBB223F0C00006AAF9
:10A4D0004FEAD00802EB080E03F007011EF80C2C1F
:10A4E00006FA01FC12EA0C0F1CD02218990992F905
:10A4F000303054F82330002B00F0ED80032900F0B9
:10A50000ED80820002F1A0421EF8148CD2F800E720
:10A5100018EA0C0FCEF3014E40F0BC80BEF1030FE1
:10A5200000F00081002D3FF4FCAE4FF0A043019AF3
:10A53000D3F8103593423FF4F4AE029A019303929C
:10A5400028E700BF0061004004610040086100404E
:10A550000C6100401061004014610040186100402F
:10A560001C6100407C61004000600040BC34002061
:10A570009A49D1F8041311F0010170D013601368E7
:10A580000493049B964B1A68012A7FF4A3AE934A66
:10A59000D2F8042397077FF59DAE00221A601B684E
:10A5A0000493049B8F4B1A68012A46F002067FF43D
:10A5B00096AE8A4AD2F8042355077FF590AE002262
:10A5C0001A601B680493049B874B1A68012A46F0A3
:10A5D00004067FF489AE814AD2F8042314077FF57C
:10A5E00083AE00221A601B680493049B7F4B1A6899
:10A5F000012A46F008067FF47CAE784AD2F804239C
:10A60000D0067FF576AE00221A601B680493049B87
:10A61000774B1A68012A46F010067FF46FAE6F4A36
:10A62000D2F8042391067FF569AE00221A601B68F8
:10A630000493049B6F4B1A68012A46F020067FF4AE
:10A6400062AE664AD2F8042352067FF55CAE002261
:10A650001A601B680493049B46F0400653E60E46BE
:10A6600033E6654B00221A601B6805934FF0A04348
:10A67000059AD3F81035019346F000464CE6BEF13A
:10A68000020F7FF41DAF032963D0002B3FF418AFF6
:10A69000984715E7BEF1020F7FF444AF032969D054
:10A6A000002B54D13EE7BEF1020F7FF4A4AE032984
:10A6B00000F091800025002B3FF49EAE98479BE66A
:10A6C000BEF1020F7FF4CAAE032956D0002B3FF42F
:10A6D000C5AE9847C2E603297FF424AF17F80820D7
:10A6E00042EA0C0207F808200BE703297FF4B6AE14
:10A6F00017F8082042EA0C0207F808209DE6032913
:10A700007FF479AE17F80C50154307F80C5061E64A
:10A7100003297FF4D5AE17F8082042EA0C0207F8A7
:10A720000820BCE60329BBD14FF4003ED2F800C795
:10A730002CF4403CC2F800C7D2F800C701354CEAFF
:10A740000E0CEDB2C2F800C7002B3FF4EEAE9847F6
:10A75000E8E64FF4403ED2F800C72CF4403CC2F883
:10A7600000C7D2F800C701354CEA0E0CEDB2C2F8B2
:10A7700000C78AE74FF4403ED8E74FF4403ED2F896
:10A7800000C72CF4403CC2F800C7D2F800C701351E
:10A790004CEA0E0CEDB2C2F800C797E703297FF42C
:10A7A00074AF4FF4003ED6E703298FD14FF4003E3B
:10A7B000E5E703297FF47FAF4FF40035DCF800278D
:10A7C00022F44032CCF80027DCF800272A43CCF8EA
:10A7D000002701256FE74FF44035EFE700600040A8
:10A7E00004610040086100400C61004010610040BD
:10A7F00014610040186100407C610040014B1B68FF
:10A80000184700BF18350020104B984201D0002097
:10A81000704730B583B002A8002300F8013D0D4613
:10A82000FDF7E2FA0A4B1C7934B19DF80700FDF7F9
:10A8300001FB112003B030BD01229DF807001D600F
:10A840001A71FDF7F7FA2046F4E700BF0020004038
:10A8500018350020034B984203D1034B00221A60A5
:10A860001A717047002000401835002030B56C4A3E
:10A87000D2F8043399058BB066D5D2F82431002B79
:10A8800062D00023C2F82431D2F8243103934FF46C
:10A890000171644B0398C2F8081393F8291009B9A1
:10A8A000012151605E4902228DF81820D1F88024E0
:10A8B000C1F880249869D96809920022CDE907106F
:10A8C000C3E90622D3E9001406A8A047544AD2F8E7
:10A8D0001C31BBB1534B186A5969884269D350483F
:10A8E0000022C0F81C21D0F81C010190019849B148
:10A8F00098688DF8182008915A610790D3E90012E2
:10A9000006A89047464AD2F84431DBB10021454BB6
:10A91000C2F84411D2F8440193F82910009000982D
:10A9200009B1012111609A6962B10022586AD9689F
:10A930009A610122CDE907108DF8182006A8D3E905
:10A94000001290470BB030BD354AD2F804335B0794
:10A95000BCD5D2F80831002BB8D0324B9969002908
:10A960003CD00021C2F80811D2F8081104910499D2
:10A97000D868596AD2F8182542545A6A996901323E
:10A980005A625A6A8A42A1D1DA691968002A2ED01D
:10A99000D8685D6A1C699A61079000220120DC601A
:10A9A000DA615A628DF8180008955B6806A8984726
:10A9B0008CE793F8280000F0FF0400288FD1C2F83C
:10A9C0001C41D2F81C11029102999C68186A196AFC
:10A9D000205C01311962C2F81C0593E7C2F8081126
:10A9E000D2F8080105900598D2F81825C9E793F820
:10A9F000292012B90A4A01205060094A4FF4017017
:10AA0000C2F80803586ADA68089000240120079207
:10AA10008DF818005A689C6106A8904756E700BF59
:10AA200000200040203500202DE9F041DFF898811A
:10AA300007792C2606FB078682B096F82A30002B71
:10AA400040F08F800D4604465C4900681646FFF7CB
:10AA5000DBFE002840F081802B68591C0CD00122BD
:10AA60004FF0A04102FA03F3C1F808352B6803F553
:10AA7000E073032241F823206B685A1C06D003F5CB
:10AA8000E0734FF0A042002142F823102368AA6926
:10AA9000C3F82425297D6B7D22680B43C2F86C35F1
:10AAA000D5E900122368C3F81425C3F80C152B7DD3
:10AAB000012B5AD02C2303FB07F308EB030256604B
:10AAC0002A6948F80320002E34D022682B7F3C4DA1
:10AAD0000021C2F81C11D2F81C2100922268009EAD
:10AAE000C2F84411D2F84411226801910199C2F8C8
:10AAF00004532168090B4AB25B01002ADBB256DB22
:10AB000002F1604202F5614282F800332268120BC2
:10AB100042F3C40323F0604323F0030303F16043D3
:10AB200003F5614302F01F02012101FA02F2C3F8AA
:10AB300080211A602C23246803FB0783002204254C
:10AB40000121C4F8005583F82A10C3E9062283F8CE
:10AB500029205A6102B0BDE8F081112002B0BDE8A1
:10AB6000F081082002B0BDE8F081AB68591C06D026
:10AB700003F5E0734FF0A042002142F82310EB6888
:10AB80005A1C0DD001224FF0A04102FA03F3C1F884
:10AB90000835EB6803F5E073032241F82320EB68E6
:10ABA0002268A968C2F80835C2F8101582E7054A7C
:10ABB00001F00F010A441376A8E700BF6DA8020058
:10ABC00080000200FCEC00E020350020F0B5314EA2
:10ABD00005792C2303FB056385B05C69002C53D1F8
:10ABE0001C62996083F828405A610268C2F81C41CF
:10ABF000D2F81C11026802910121029F9160026843
:10AC0000D3F808C0C2F81C41D2F81C110191019977
:10AC1000D3F820E0196A5F681CF80EE00131196270
:10AC2000C2F81CE517B1204605B0F0BD1A6A5C6990
:10AC30000168944203D819E093F828203ABBD1F870
:10AC40001C21002AF8D0C1F81C71D1F81C210392F4
:10AC5000039AD3F820E01A6A1CF80EE001321A6257
:10AC6000C1F81CE51A6AA242E9D30168D1F81C3187
:10AC7000002BFBD00123CB6000202C2303FB0565B8
:10AC800000236B6105B0F0BD112005B0F0BD0F20B1
:10AC9000F3E700BF203500200379044A2C2101FB93
:10ACA00003235869003018BF012070472035002069
:10ACB000F0B4514D04792C2303FB045386B05F6834
:10ACC00027B103684FF40176C3F808632C2303FB14
:10ACD00004539E696EB1DE690EB3002F00F08480CC
:10ACE00003684FF401721120C3F8042306B0F0BCCE
:10ACF000704793F829709A61D9605E62DE61002F17
:10AD000060D02C2202FB04520168536853B14FF407
:10AD10000173C1F80433002006B0F0BC704719611C
:10AD2000DA61EEE7C1F84431D1F844310393039B73
:10AD30000368D3F82461D3F80871D3F8441157B9E4
:10AD4000002936D1002EF4D02C2303FB0454002319
:10AD5000A3610320E0E7002EF6D161BB966996B1AE
:10AD6000C3F80811D3F8081104910499D668516A00
:10AD7000D3F818357354536A916901335362536A97
:10AD80009942D5D808E0C3F80861D3F808110591B5
:10AD90000599D3F81835536A2C2303FB0454002279
:10ADA00094F82930A2610BB30368012110461960A1
:10ADB000B2E7002EC8D12C2303FB04540023A36167
:10ADC0000F20A9E70368C3F82471D3F8242103688E
:10ADD0000192019AC3F80871D3F80821036802921E
:10ADE000012202991A608CE7112095E7026801217F
:10ADF0001846516090E700BF20350020F0B5474B62
:10AE0000D3F8242189B0002A54D00021C3F824119A
:10AE1000D3F82421029202228DF81020029AD3F84E
:10AE200080043F4AC3F880040790D3F83C05D368F8
:10AE30008DF81800C2E9061105931168536804A83B
:10AE40009847364BD3F84421BAB10020344AC3F8AE
:10AE50004401D3F8444191690194019C69B1D3F84C
:10AE60003C458DF81840D368906101240593116822
:10AE700053688DF8104004A89847284BD3F8202138
:10AE8000B2B10021264AC3F82011D3F820415069FD
:10AE90000094009C60B1D3F84C0593688DF81800BD
:10AEA0008DF810105161059304A8D2E9001398475A
:10AEB00009B0F0BDD3F810110029C2D0C3F8102199
:10AEC000D3F810111648039103998169D3F83C45D2
:10AED0008C42B6D1C569C768D0E90016E4B295B115
:10AEE000D3F800C285612CF02005C261C3F800527E
:10AEF0000369C36001228DF8184005978DF8102072
:10AF000004A8B0479DE7012385618DF81840059797
:10AF10008DF8103004A8B04793E700BF0020004030
:10AF20004C3500202DE9F04307796B4E4FEAC708F6
:10AF300008EB070306EB830385B093F82030002B62
:10AF400040F09E800D460446644900689146FFF734
:10AF50005BFC002840F090802B68591C0CD001222B
:10AF60004FF0A04102FA03F3C1F808352B6803F54E
:10AF7000E073032241F823206B685A1C06D003F5C6
:10AF8000E0734FF0A042002142F823102368AA6921
:10AF9000C3F82425297D6A7D23680A43C3F86C25FC
:10AFA000D5E900312268C2F80C35C2F814152B7DA2
:10AFB000012B69D008EB07029200B318C3F8049084
:10AFC0002B69B350B9F1000F45D021682B7F444D58
:10AFD0000022C1F81021D1F8101100912168DDF88C
:10AFE00000C0C1F82021D1F8201101912168DDF8BD
:10AFF00004C0C1F82421D1F8241102912168DDF8A0
:10B0000008C0C1F84421D1F8441122680391039982
:10B01000C2F804532168090B4AB25B01002ADBB273
:10B0200054DB02F1604202F5614282F8003322688B
:10B03000120B42F3C40323F0604323F0030303F134
:10B04000604303F5614302F01F02012101FA02F29D
:10B05000C3F880211A604744226806EB8706002364
:10B060000124082186F82040C2F80015C6E90633FD
:10B07000736105B0BDE8F083112005B0BDE8F08331
:10B08000082005B0BDE8F083AB68591C06D003F575
:10B09000E0734FF0A042002142F82310EB685A1CE5
:10B0A0000DD001224FF0A04102FA03F3C1F8083598
:10B0B000EB6803F5E073032241F82320EB68226874
:10B0C000A968C2F80835C2F8101573E7054A01F0FF
:10B0D0000F010A441376AAE74C350020FDAD0200AB
:10B0E00010030200FCEC00E001F06043B3F1005FEC
:10B0F0002CD1F0B50679234F4FEAC60C0CEB0604B1
:10B1000007EB840483B0636913BBA16062610568C7
:10B11000C5F82031D5F820E10568CDF804E0DDF868
:10B1200004E0C5F85831D5F858E10568CDF800E0DD
:10B13000DDF800E0C5F84415C5F84825026801218E
:10B14000916062683AB1184603B0F0BD10207047B4
:10B15000112003B0F0BD036800E08AB9D3F82011D4
:10B16000D3F858210029F8D0002A14BF0F2000205E
:10B170000CEB060307EB830300225A6103B0F0BD1A
:10B180000F20F5E74C3500200379054A03EBC30394
:10B1900002EB83035869003018BF0120704700BFDD
:10B1A0004C35002001F06043B3F1005F7ED1F0B474
:10B1B0000579464CEB005E1904EB860682B0766892
:10B1C00026B107684FF4047CC7F808C32B4404EB8E
:10B1D00083039D69002D42D19A61DD61D9600368C6
:10B1E000C3F81051D3F8106103680196019EC3F8AB
:10B1F0004451D3F8445103680095009DC3F83415B9
:10B20000C3F83825036801221A6005790368EE0047
:10B21000721904EB820252685AB14FF40472C3F8F7
:10B220000423002002B0F0BC7047002942D100285E
:10B2300046D1D3F81021D3F84411D3F82401002AC1
:10B24000F3D0354400284FF0000304EB850414BF0D
:10B25000032018469942A36118BF0F20E2E7DD6979
:10B260003DB12EB303684FF40472C3F804231120D8
:10B27000D8E71961DA610368C3F81051D3F8106197
:10B2800003680196019EC3F84451D3F84451036802
:10B290000095009DC3F83415C3F838250268D2F82C
:10B2A000003243F02003C2F80032AEE710207047AE
:10B2B0001120B7E7354404EB85040F20A261B1E704
:10B2C000354404EB85040320A161ABE74C35002035
:10B2D0000220FEF7E7B800BF2DE9F0470D4606460D
:10B2E000FEF700F903281ED8012D04461DD00ED309
:10B2F000022D18D11B4B00EB40041C44657895B11E
:10B30000194B1B687BB12846BDE8F0471847174822
:10B31000FCF7C4FB134B164A04EB44010B44125DCB
:10B320009D78AA42EBD0BDE8F0870E4F4FEA400867
:10B3300008EB0003FA18FD5C53782BB9A04447448E
:10B340000B4BBA781A55DAE7DFF8289007484A46D7
:10B350004FF40041FCF74CFB0028EFD189F8006066
:10B36000ECE700BFD4350020E835002094350020FC
:10B37000F03500207035002010B50078FEF7B2F8E7
:10B3800003280BD8064B00EB40001844407828B146
:10B39000044B1B6813B1BDE81040184710BD00BF37
:10B3A000D4350020E8350020B24B1B68DB0700D401
:10B3B000704770B5B04DB14E2B7834786BB1B04B4F
:10B3C0001B7800202870002B4BD0FEF733F80120AB
:10B3D000FEF730F80320FEF72DF8172C40D8DFE8F1
:10B3E00014F0B500F000F000D8000401C6000F0111
:10B3F000EA005000430050004300610018001800AC
:10B40000180018001800660077008B009F005D0090
:10B410005D009C48FCF742FBD4F11104054600F0A6
:10B42000FC80002840F0F980012C13D0C82303FBD6
:10B4300004F44FF4FA704FF400430021C3FB0401FD
:10B440004FF47A72002304F01FFB2A4601468D4810
:10B45000FCF7CEFA0220FDF7E1FF894B01221A70BA
:10B4600070BDFDF7F3FFB8E7012318462B70FEF718
:10B4700019F800224FF480418348BDE87040FCF782
:10B48000B7BA012318462B70FEF70CF8002240F6DD
:10B49000CD417D48BDE87040FCF7AABAFDF7ECFF4E
:10B4A000347070BDFDF7E8FF0C23337070BD744B32
:10B4B0001B78002B00F0BB800020FDF7BBFF0120B4
:10B4C000FDF7B8FF0320FDF7B5FF1223337070BD01
:10B4D0006B4B1B78002B00F0AD800020FDF7AAFF1E
:10B4E0000120FDF7A7FF0320FDF7A4FF0020FDF7D3
:10B4F00095FF1323337070BD614B1B78002B00F058
:10B50000A9800020FDF796FF0120FDF793FF03209F
:10B51000FDF790FF0120FDF781FF1423337070BD0C
:10B52000574B1B78002B7FD00020FDF783FF0120B5
:10B53000FDF780FF0320FDF77DFF0020FDF76EFF84
:10B540000120FDF76BFF1523337070BD4C4B1B784A
:10B55000002B00F087800020FDF76CFF0120FDF735
:10B5600069FF0320FDF766FF0023337070BD0020E4
:10B57000FDF746FF002860D00020FDF75BFF0523A4
:10B580003370002241F69A113F48BDE87040FCF745
:10B590002FBA0020FDF734FF00285ED00020FDF711
:10B5A00049FF46F266610323337000223648BDE846
:10B5B0007040FCF71DBA0020FDF730FF0723337001
:10B5C00070BD0020FDF71CFFD0B30020FDF732FF57
:10B5D000022C4EF2666118BF4FF400313470002225
:10B5E0002948BDE87040FCF703BA0020FDF708FFCA
:10B5F000D8B30020FDF71EFF4FF400310423D3E73A
:10B600000020FDF74FFF06233370002240F6CD41A6
:10B610001D48BDE87040FCF7EBB90220FDF70AFFBA
:10B62000174B00221A7070BDFDF710FF85E7FDF77C
:10B630000DFF4AE7FDF70AFF58E7FDF7EFFE9EE72B
:10B64000FDF7ECFE43F2333141F69A13022C08BFAA
:10B650001946C3E7FDF7FAFE5CE7FDF7DFFE41F6AA
:10B660009A11A0E7FDF7F2FE7EE7FDF7D7FE43F261
:10B670003331C3E7E0350020E4350020EC3500200D
:10B680007135002074350020B4350020032801D91D
:10B6900000207047FDF718BF38B5C34B1C6814F085
:10B6A000010401D1204638BDC04C2378054663B162
:10B6B000BF4B1B780020207023B3FDF7BBFE012099
:10B6C000FDF7B8FE0320FDF7B5FE172D00F26981E6
:10B6D000DFE815F0C300E800E8000C01D5001F0109
:10B6E000FE00320128001B0028001B006A007100C8
:10B6F00071007100710071009A00AD0035004B00BF
:10B7000064006400FDF7A2FEDFE701231846237002
:10B71000FDF7C8FE00224FF48041A648BDE838403E
:10B72000FCF766B9012318462370FDF7BBFE002223
:10B7300040F6CD419F48BDE83840FCF759B99C4BD5
:10B740001B78002B00F012810020FDF773FE012012
:10B75000FDF770FE0320FDF76DFE0120FDF75EFE94
:10B76000954B14221A7000249CE7914B1B78002BF8
:10B7700000F0FF800020FDF75DFE0120FDF75AFE7E
:10B780000320FDF757FE0020FDF748FE0120FDF7DE
:10B7900045FE894B15221A70002483E7FDF76CFEE5
:10B7A000854B00241D707DE7FDF766FE824B0C2261
:10B7B0001A70002476E78148FCF770F90446D5F149
:10B7C000110000F0C180002C40F0BE80012814D090
:10B7D000C82505FB00F54FF400434FF4FA70002133
:10B7E000C3FB05014FF47A72002304F04DF92246A1
:10B7F00001467248FCF7FCF804460220FDF70EFEF5
:10B800006B4B01221A704DE7694B1B78002B00F03F
:10B81000AA800020FDF70EFE0120FDF70BFE03209D
:10B82000FDF708FE644B12221A7000243AE7604BC1
:10B830001B78002B00F08F800020FDF7FBFD01201E
:10B84000FDF7F8FD0320FDF7F5FD0020FDF7E6FD0F
:10B85000594B13221A70002424E7554B1B78002BF8
:10B8600000F08A800020FDF7E5FD0120FDF7E2FDF4
:10B870000320FDF7DFFD504B00241C7012E7002071
:10B88000FDF7BEFD002869D00020FDF7D3FD4FF481
:10B890000031494B474804241C700022BDE8384061
:10B8A000FCF7A6B80020FDF7ABFD00286CD0002007
:10B8B000FDF7C0FD022D4EF2666118BF4FF4003156
:10B8C0003D4B3C481D700022BDE83840FCF790B865
:10B8D0000020FDF7E7FD384B364806241C70002297
:10B8E00040F6CD41BDE83840FCF782B80020FDF7B6
:10B8F00087FD002843D00020FDF79CFD46F26661DD
:10B900002D4B2C4803241C700022BDE83840FCF766
:10B910006FB80020FDF774FD00283FD00020FDF730
:10B9200089FD254B234805241C70002241F69A11FD
:10B93000BDE83840FCF75CB80020FDF76FFD1E4BFA
:10B9400007221A700024ADE60220FDF773FD184BA4
:10B9500000221A70A6E6FDF779FD76E7FDF75EFD99
:10B9600043F2333195E7FDF771FD5BE7FDF76EFDBF
:10B97000F3E6FDF76BFD06E7FDF768FD7BE7FDF7F6
:10B980004DFD41F69A11BBE7FDF748FD43F2333117
:10B9900041F69A13022D08BF194691E7FDF73EFDC7
:10B9A000BFE700247EE600BFE0350020E43500203C
:10B9B00071350020B4350020EC35002074350020AE
:10B9C00038B5244B244A19608307106000F0010544
:10B9D00003D4CDB92C46204638BD204B20480E2438
:10B9E0000F2210211C701124DA7099715C7240F2E0
:10B9F00066620421FBF78AFC0446B8B115B1012048
:10BA0000FDF788FD204638BD0120FDF783FD154A6E
:10BA100015480021FBF7DAFF04460028F2D1134A4B
:10BA200013480121BDE83840FBF7D0BFFBF7C6FC47
:10BA300004460028E2D101460E4A0F48FBF7C6FF34
:10BA40000446002DDED00120FDF764FD002CD9D185
:10BA5000DDE700BFE8350020E0350020D4350020C8
:10BA6000D4040300A9B30200FC040300D1B2020015
:10BA7000F404030079B30200F8040300032811D88A
:10BA8000012A0BD0012919D00ED302290AD10E4B5D
:10BA900000EB4000034400205A70704701290AD08F
:10BAA0000022EFE707207047074B00EB40000344FC
:10BAB00000209A70704700F10E02D2B200EB4003F2
:10BAC00001490020CA547047D4350020032813D8F8
:10BAD00008B5FDF719FD800000F1A0430020D3F860
